:0610000011EF08F04002B0
:0E100800FACFB9F0FBCFBAF05CED33F0120076
:10101800E0CF28F028C0E0FF1000A2EF31F0000078
:1010280000000F0F0F0FF0F0F0F0FF00FF0000FFBF
:1010380000FFFFFF00000000FFFFFFFF0000C0C02F
:10104800C0C0303030300C0C0C0C03030303FFFF1E
:10105800FFFFE0E7E70780E1E707E087E107808136
:10106800E107E0E7870180E18701E087810180816E
:101078008101FFFFFFFF00000000000000000000EA
:10108800000000000000F4CCB29209022000010127
:1010980000C0320904000002FFFFFF00070501023B
:1010A800400001070581024000011A037500510044
:1010B8007500610064002000440065007600690046
:1010C800630065001603420061006C0064007A004A
:1010D8006100720069006B006100120100020000EB
:1010E800000862350100000101020001040309043F
:0210F8000000F6
:1060A40012001200120040EF3BF089EC31F078EC62
:1060B40030F0FDD7226601D002D02AEC31F0120074
:1060C400C5501F0BD8B4C7B4FBD7120094EC3CF0F6
:1060D400D5EC32F0A1EC30F055EF30F0225005E170
:1060E4000001806B7F6B010E226E120053EC30F0C6
:1060F40054EC30F00AEC08F02DEF3AF00001766B26
:10610400776B746B756BEEEC37F0FFEC30F0188442
:106114001200E8CFCFF0CDC0C8F0010EC96FCE0E8B
:10612400CA6FCF51FFEF32F0E8CFD4F0D2C0C8F03D
:10613400010EC96FD3C0CAF0D45171EF36F0F0A28A
:1061440005D0F0922250D8A45CEC30F09EA603D087
:106154009E9634EC39F01200C6500F0B080A04E086
:10616400C6500F0B0B0AD8B4C586C7A0FED7C950BA
:106174001200E8CFC8F03F0EC716C66AC56AC851F8
:10618400C612C751C71293829380C68A12006984CB
:1061940068986D82010E00017C6F3A6A750E396E43
:1061A4003C6A3B6A3E6A3D6A6AEF32F000017C6BEE
:1061B4003A6A740E396E000E3C6A3B6A3E6A3D6A66
:1061C40063EC32F06D92699401D0689468A4120073
:1061D400FCD7E8CF2CF01F500FE11D6A2CC01CF037
:1061E40029C01EF02BC00BF00C6A2AC01BF01A6ADF
:1061F400010E1F6EC69EC5801200126612D06D6A13
:10620400696A160E6F6E9F0E6B6E7B0E696ED08E72
:10621400A28AA08AF28E01D06D866DA6FDD7010EEA
:10622400126E120029C02FF02AC030F008D02FC0FF
:10623400D9FF30C0DAFF2BC0DFFF2F4A302A2D06EA
:10624400D8A02E062D28D8B42E28D8B41200EFD703
:106254000001805103E07F29010B01D07F51190D0A
:10626400F350810F206E010E216E3B0E296E0E0E2F
:106274002A6E20C02BF0D20EEBEF30F0C7C0CDF069
:10628400C8C0CEF008D0CDC0D9FFCEC0DAFFC9C097
:10629400DFFFCD4BCE2BCB07D8A0CC070001CB29F9
:1062A400D8B4CC29D8B41200EED70501406B000154
:1062B400746B756B1E0E336E010E1FEC32F0296A7F
:1062C4000501050E2B6E2A6A400E2C6E010E0FEC92
:1062D40035F029C076F02AC077F01200E8CF2CF010
:1062E4001F5014E1010E1D6E2CC01CF029C01EF0BD
:1062F4002BC00BF00F0E0C6E5F0E0B640C6A2AC0E1
:106304001BF01A6A010E1F6EC69EC5801200F28C25
:10631400F28E0F0EC16E9388B190B18E300EB11211
:10632400B192A192A092B26AB36AB180FEEC31F04C
:1063340086EC32F0CDEC3BF070EC30F080EF30F0D6
:1063440000EE60F0590EEE6AE806FDE100EE01F0A1
:10635400270EEE6AE806FDE1040EF66E100EF76EE7
:10636400000EF86E0900F5CF51F00900F5CF52F098
:10637400000EF86E000157EF30F070A01BD0800EB5
:1063840005C0D9FF06C0DAFFDF6213D0840E6CC0EB
:10639400D9FF6DC0DAFFDF620CD005C0D9FF06C09B
:1063A400DAFF0C0EDF6E05C0D9FF06C0DAFF000E5F
:1063B400DB8E7090689A1200E8CFCAF00001CA51CF
:1063C40002E0508001D05090CAC001F0C75102E0F1
:1063D400508401D05094C7C002F0C85102E05088E4
:1063E40001D05098C8C003F0C95102E0508C01D0CC
:1063F400509CC9C004F01200186A080E4E6E090EB3
:106404004F6E0A0E0001D76F0B0ED86F176A969065
:106414008D909596959A959E95928C968C9A8C9E35
:106424008C929D90CD90CD92300ECD12CD8ECE6AB1
:10643400CF6A9E909D80CD801200E8CF38F033A4BF
:1064440004D0296A385027EC34F033A205D0010E69
:10645400296E385027EC34F0700E346E0F0E356E02
:1064640038503426000E352234C036F035C037F0AB
:1064740036C0D9FF37C0DAFF33C0DFFF000CE8CFE6
:10648400C7F0C7C0C9FFC6BE1BD0C6500F0B080A51
:106494000AE0C6500F0B0B0A06E0C6889EA6FED77C
:1064A400C7A4C7500DD0C6500F0B080A04E0C6504D
:1064B4000F0B0B0A05E1C7B0FED762EC30F0C550F4
:1064C400120006D057EC31F01ED052EC30F01BD045
:1064D40039C03FF03AC040F0405003E07F0A12E078
:1064E40012D03F50010AEEE0030A0DE0010AEDE08C
:1064F400060A09E0770A07E0010A05E0070A03E053
:10650400010A01D03F1C1200959095949598959C92
:106514008C908C948C988C9C276A196A6869696938
:106524006A696B69550E506E000EC76BC86BC96BF8
:10653400DEEC31F01880D59ED58CD59AD598D596B9
:10654400D550F80B0609D56EF294F28AD66AD58E28
:1065540012001550020A03E1B3EC3AF023D0156A95
:106564000D661FD020EE01F00750D9260850DA221C
:10657400080EDF6E20EE02F00750D9260850DA220A
:10658400200EDE6E040EDD6E07C0D9FF08C0DAFFF0
:106594000C0EDF6E07C0D9FF08C0DAFF000EDB8ED9
:1065A40001D00D6A1200F2A427D0F294D8902734B7
:1065B400296E010E2A6E292A02D0D8902A36292E55
:1065C400FCD72A502B6E195009E02B1C8C1619C0CD
:1065D400D6FF196A272A030E27160ED02B50501403
:1065E4008C122750010FD96EDA6ADF50196E1950D8
:1065F400A108D66EA10E19261200E8CFCBF062ECEA
:1066040030F0C580C5B0FED762EC30F00001CB514C
:10661400FE0B41EC32F062EC30F00001C85141EC69
:1066240032F00001CC6B0CD062EC30F00001CA51A6
:10663400CC25D96EDA6ADF5041EC32F00001CC2B64
:10664400C951CC5DF1E362EC30F0C584C5A41200FD
:10665400FDD7236A116A0F6A106A0D6A156A6CC045
:10666400D9FF6DC0DAFF7F0EDF16040E00016C1B2C
:106674006CC0D9FF6DC0DAFF7F0EDF16040E6C1BF1
:1066840007C0D9FF08C0DAFF7F0EDF16B66BB76B01
:10669400B86B636B646B656BCDEC36F03A6A030ED2
:1066A400396E000E3C6A3B6A3E6A3D6A63EC32F026
:1066B4005AEF38F00600E9CFBBF0EACFBCF0E1CFE7
:1066C400BDF0E2CFBEF0D9CFBFF0DACFC0F0F3CF48
:1066D400C1F0F4CFC2F0F6CFC3F0F7CFC4F0F8CFD7
:1066E400C5F0F5CFC6F068EC30F0C6C0F5FFC5C004
:1066F400F8FFC4C0F7FFC3C0F6FFC2C0F4FFC1C0B7
:10670400F3FFC0C0DAFFBFC0D9FFBEC0E2FFBDC007
:10671400E1FFBCC0EAFFBBC0E9FFBAC0FBFFB9C0E0
:10672400FAFF11003AD00E0E2026020E216E010E41
:10673400296E050E2A6E20C02BF0C00EEBEC30F053
:1067440038D0050E2026030E216E100E296E060E7B
:106754002A6E20C02BF01C0EEBEC30F02AD0000186
:10676400806701D0802B040E216E260E296E010E47
:106774002A6E520E2B6EC00E70EC31F01AD0050E3C
:10678400216E1D0E296E010E2A6E510E2B6E1C0EEB
:1067940070EC31F00ED0216A0CD021500AE0010ACD
:1067A400C2E0030ACEE0010ADAE0070AE8E0010ADF
:1067B400F2E012000401286B296B35D00001B68F7A
:1067C400040128810E0436E1288334D00001B68FF9
:1067D40031D00001B68F040124BF06D024510F0B21
:1067E400020DF350700F05D024510F0B020DF3501E
:1067F4006C0FD96EDA6ADECF2AF0DDCF2BF02AC017
:10680400D9FF2BC0DAFFDF50296E29AE13D02AC07E
:10681400D9FF2BC0DAFFDF50296E29A40BD0010E5B
:106824000401286F07D020511F0BC8E0010ACEE0F5
:10683400030ACFE00001B6AF07D0040EB46F280EF0
:10684400B36FB681020EB76F1200E8CF30F00401C7
:10685400040E326E316AD89029342A6E2B6A2B3694
:1068640030502C6E2D6AD8902C362D36D8902C367C
:106874002D362A502C242E6E2B502D202F6ED8907E
:106884002E362F36D8902E362F362E5031262F50B6
:10689400322231C0D9FF32C0DAFF7F0EDF162966FB
:1068A40006D03050020DF3500001700F05D0305067
:1068B400020DF35000016C0FD96EDA6A31C0DEFFAD
:1068C40032C0DDFF31C0D9FF32C0DAFFBF0EDF16A0
:1068D40020EE04F03150D9263250DA22400EDF1275
:1068E400400C0F6A106A1550020A1DE120EE01F0F7
:1068F4000750D9260850DA22080EDF6E20EE02F087
:106904000750D9260850DA22280EDE6E040EDD6EFA
:1069140007C0D9FF08C0DAFF480EDF6E07C0D9FFF1
:1069240008C0DAFF27D020EEB7F0040114EE26F0F9
:10693400E652DE52DD50E55C02E1DF50E75C04E242
:1069440026C4B7F027C4B8F02BEC37F020EE02F0E1
:106954006C51D9266D51DA22280EDE6E040EDD6EDE
:106964006CC0D9FF6DC0DAFF480EDF6E6CC0D9FF72
:106974006DC0DAFF000EDB8E000CE8CFCBF0C75100
:1069840005E0CB51020DF3506C0F04D0CB51020D36
:10699400F350700FD96EDA6ADECFCCF0DDCFCDF0D4
:1069A400CD51CC1103E1C76BC86B36D020EE02F099
:1069B400CC51D926CD51DA22C8C0DEFFC9C0DDFFD3
:1069C40020EE01F0CC51D926CD51DA22CAC0DFFF26
:1069D400CCC0D9FFCDC0DAFF400EDF16CCC0D9FF42
:1069E400CDC0DAFF000EDB86CCC0D9FFCDC0DAFF04
:1069F400DB8EC75105E0CB51020DF3506C0F04D070
:106A0400CB51020DF350700FD96EDA6A040EDF1AFF
:106A1400CCC0C7F0CDC0C8F01200E8CF2DF029508B
:106A240006E02D50020DF35000016C0F05D02D50DF
:106A3400020DF3500001700FD96EDA6ADECF2EF02A
:106A4400DDCF2FF02F502E1003E1296A2A6A36D0A9
:106A540020EE02F02E50D9262F50DA222AC0DEFF73
:106A64002BC0DDFF20EE01F02E50D9262F50DA2264
:106A74002CC0DFFF2EC0D9FF2FC0DAFF400EDF1677
:106A84002EC0D9FF2FC0DAFF000EDB862EC0D9FF3F
:106A94002FC0DAFFDB8E295005E02D50020DF35094
:106AA4006C0F04D02D50020DF350700FD96EDA6ABA
:106AB400040EDF1A2EC029F02FC02AF012002D0E6A
:106AC400136E2650FD0B4EE1D89026303F0B040D7B
:106AD4000401000EF324056E040EF420066E05C0B6
:106AE40007F006C008F0040E071A05C0D9FF06C057
:106AF400DAFFDF30E8320F0B0D0A31E14B6A20EE8A
:106B040002F00550D9260650DA22DECF49F0DDCF57
:106B14004AF049C0D9FF4AC0DAFF200E4B24E16E87
:106B2400E26A040EE222DFCFE7FF20EE02F0055016
:106B3400D9260650DA22DE2A000EDD224B2A070E61
:106B44004B64DDD720EE02F00550D9260650DA2238
:106B5400200EDE6E040EDD6E2BEC33F009D0ABECB0
:106B640032F006D02650FD0B040AD8B416EC36F0E9
:106B7400120000017D6757D0010E7D6F7E6753D0F0
:106B84007E6F1550020A15E120EE01F06C51D926F2
:106B94006D51DA22000EDF6E6CC0D9FF6DC0DAFFD2
:106BA400480EDF6E6CC0D9FF6DC0DAFF000EDB8EBD
:106BB4003AD0150438E10D6A20EE01F00550D926CB
:106BC4000650DA22080EDF6E20EE02F00550D926B8
:106BD4000650DA22200EDE6E040EDD6E05C0D9FFEB
:106BE40006C0DAFFDF6E05C0D9FF06C0DAFF000E6B
:106BF400DB8E010E0D6E20EE01F00750D9260850F1
:106C0400DA22080EDF6E20EE02F00750D926085073
:106C1400DA22200EDE6E040EDD6E07C0D9FF08C036
:106C2400DAFF800EDF6E12006CC0D9FF6DC0DAFF90
:106C3400DF38E832E832010B2A6E040E6C1B125066
:106C4400080A09E1040122517F0B6E6E6E50100E8A
:106C5400D8B4040E126E15042BE1000120EE02F0EC
:106C64006C51D9266D51DA22280EDE6E040EDD6ECB
:106C74002BEC37F02350020A0DE16CC0D9FF6DC034
:106C8400DAFF040EDF6E6CC0D9FF6DC0DAFF000EB0
:106C9400DB8E24D02A6606D06CC0D9FF6DC0DAFF23
:106CA400480EF0D76CC0D9FF6DC0DAFF080EEAD7E2
:106CB400000163AF12D0675166110EE020EE66F05A
:106CC40001D80AD00500FA6EDE50FD6EDE50FE6E6D
:106CD400F850FF6EFA501200639F156A1200E8CF55
:106CE400D1F062EC30F0C580C5B0FED762EC30F074
:106CF4000001D151FE0B41EC32F062EC30F00001A6
:106D0400C85141EC32F062EC30F0C582C5B2FED716
:106D140062EC30F00001D151010941EC32F0000184
:106D2400D06B12D062EC30F00001CA51D96EDA6A2D
:106D3400AEEC30F0DF6ECA2B62EC30F0C59AC58839
:106D4400C5B8FED70001D02BFF0EC925CB6FCC6B85
:106D5400FF0ECC23D051CD6FCE6BCE51800ACF6FB6
:106D6400CB51CD5DCC51800ACF59DCE362EC30F0DD
:106D74000001CA51D96EDA6AAEEC30F0DF6E62EC13
:106D840030F0C58AC588C5B8FED762EC30F0C5843A
:106D9400C5A41200FDD704012039E832030B58E1E1
:106DA40042D00001B68F080E126E52D0AEEC39F00C
:106DB4004FD08CEC37F04CD0240E0001B36F000E92
:106DC400B46F0F0EB46F5F0EB365B46BB681010E72
:106DD400B76FB68F3DD0DCEC33F03AD07AEC3DF0AF
:106DE40037D02451250F486E000148C0B3F0600E1F
:106DF400B36101D0EAD70F0EB46FE8D70001B68FA4
:106E040004012451250FD96EDA6A22C4DFFF20D091
:106E14003A6A020E396E000E3C6A3B6A3E6A3D6A6B
:106E240063EC32F015D02151D6E0010AD7E0020A12
:106E3400D5E0060AB6E0030AB9E0010AE9E00F0A60
:106E4400BBE0010AB6E0030ACCE0010AD7E0070A76
:106E54001200080E296E0001B75D000EB8590AE24F
:106E6400B7C029F0236602D0010E03D0230402E147
:106E7400020E236E2950B75F000EB85B20EE01F0BE
:106E84006C51D9266D51DA2229C0DFFF040E0A6E37
:106E9400280E096E0001B6A11CD039D0B3C0F6FF8C
:106EA400B4C0F7FFF86A09C0D9FF0AC0DAFF070EB9
:106EB400F76403D00800F55005D0F6CFE9FFF7CF0B
:106EC400EAFFEF50DF6E0001B34BB42B094A0A2AE4
:106ED40029062966E3D71DD0B3C0F6FFB4C0F7FF77
:106EE400F86A09C0D9FF0AC0DAFF070EF76403D0B5
:106EF4000800F55005D0F6CFE9FFF7CFEAFFEF50D1
:106F0400DF6E0001B34BB42B094A0A2A290629660D
:106F1400E3D712000001B68F0F0E2A6E710E296E90
:106F24002C6A2B6A2E6A010E2D6E14EC31F00401CA
:106F3400040E2A6E296A2C6A2B6A2E6A200E2D6E84
:106F440014EC31F06D8C416A41500001780FD96E18
:106F5400DA6ADF6A41507A0FD96EDA6ADF6A412A47
:106F6400010E4164F1D7250E296E000E2A6E0F0E14
:106F74002A6E5F0E29642A6A2C6A2B6A2E6A010E15
:106F84002D6E14EC31F06D9C040E00016D6F080E33
:106F94006C6F0401040E066E000E056E05C007F04A
:106FA40006C008F022C424F0246602D0100E12D0C9
:106FB4003A6A010E396E240E3B6E000E3C6E0F0EC3
:106FC4003C6E5F0E3B643C6A3E6A010E3D6E63ECB0
:106FD40032F0200E126E1200A09A6A6A686A706A11
:106FE4000F0EC86F710EC76FCA6BC96BCC6B010EE5
:106FF400CB6F40EC31F0160E6F6E9F0E6B6E7B0EF6
:10700400696ECF6BCF51040D000EF324D96E040EBC
:10701400F420DA6EDE6ADE6ADE6ADD6A0001CF2BF6
:10702400070ECF65EFD76D8C6E6A6D986D9C05D099
:107034006896B66B636B646B656B68B6F9D7010EC3
:107044007D6F7E6F0F6A106A7C6BCF6BCF51020D20
:10705400F3506C0FD96EDA6ADE6ADD6ACF51020D25
:10706400F350700FD96EDA6ADE6ADD6ACF51780F99
:10707400D96EDA6ADF6ACF517A0FD96EDA6ADF6ABB
:10708400CF2B010ECF65E2D7040E00016D6F080E01
:107094006C6F160E706E040E0401036F200E026FE7
:1070A400080E016F040E006F008F246A126A12002A
:1070B4006D980001B6BF37D063AF0AD0020E156ECB
:1070C400106602D073EC34F000017E6B7D6B5CD0F3
:1070D40020EE01F00750D9260850DA22080EDF6EA0
:1070E40020EE02F00750D9260850DA22200EDE6E78
:1070F400040EDD6E07C0D9FF08C0DAFF0C0EDF6E88
:1071040007C0D9FF08C0DAFF000EDB8E6CC0D9FFC0
:107114006DC0DAFF040EDF6E6CC0D9FF6DC0DAFFFC
:10712400000EDB8E31D0040120AF0ED0010E156E9F
:107134000F6602D073EC34F000017E6B7D6B116638
:1071440023D0BBEC35F020D0020E156E20EE01F0FA
:107154000750D9260850DA22080EDF6E20EE02F01E
:107164000750D9260850DA22200EDE6E040EDD6E9A
:1071740007C0D9FF08C0DAFFDF6E07C0D9FF08C017
:10718400DAFF000EDB8ED8D71200A09A6A6A686A0A
:10719400706A0F0E2A6E710E296E2C6A2B6A2E6A83
:1071A400010E2D6E14EC31F0160E6F6E9F0E6B6E89
:1071B4007B0E696E316A3150040D000EF324D96ED2
:1071C400040EF420DA6EDE6ADE6ADE6ADD6A312AD3
:1071D400070E3164F0D76D8C6E6A6D986D9C06D085
:1071E40068960001B66B636B646B656B68B6F8D721
:1071F400010E00017D6F7E6F0F6A106A7C6B316A2D
:107204003150020DF3506C0FD96EDA6ADE6ADD6A12
:107214003150020DF350700FD96EDA6ADE6ADD6AFE
:107224003150780FD96EDA6ADF6A31507A0FD96E2D
:10723400DA6ADF6A312A010E3164E2D7040E0001F2
:107244006D6F080E6C6F160E706E040E0401036FE2
:10725400200E026F080E016F040E006F008F246A67
:10726400126A1200A1A667D0A1961FD0C69E1C5018
:10727400FE0BC96EC6AE02D0C69E17D0040E41D016
:10728400C69E1C500109C96EC6BEF6D7070E39D07A
:107294001F6A94EC33F05FD0C5BC07D0C69E1EC0F5
:1072A400C9FFC6BEE9D7050E2CD01F6A54D0C5ACA1
:1072B4000FD0FBD7C582020E24D0C69E0BC0D9FFC7
:1072C4000CC0DAFFDF50C96EC6BED6D7060E19D081
:1072D4001D50F0E0010AF1E0E8D7C5BCE6D71A2A50
:1072E4001B501A600CD0C69E1A500B24D96E000E87
:1072F4000C20DA6EDF50C96EC6BEBED72CD0C58452
:10730400030E1F6E28D0C7A011D01A2A0BC0D9FFB4
:107314000CC0DAFFC9CFDFFF0B4A0C2A1B501A60DE
:1073240002D0C59A01D0C58AC58815D01B501A60F1
:10733400E6D7C58610D01F500EE0010A97E0030A75
:107344009FE0010AA5E0070AA7E0010AB0E0030AEA
:10735400C4E0010AD8E0120004012051800A7AE155
:10736400C00E0001B66F6DD0E20E0001B36F100EB7
:10737400B46F000EB86F120EB76F6CD022673BD09B
:107384002251910F296E29C0F6FF100EF76E0800E6
:10739400F5CF2AF000012AC0B3F0B46F020EB32572
:1073A400296E000EB4212A6E2950F66EE96E070E7E
:1073B400EA6E2A50EA6403D0EA6EEF5003D0F76E07
:1073C4000800F5500001B76F030EB325296E000EB7
:1073D400B4212A6E2950F66EE96E070EEA6E2A5021
:1073E400EA6403D0EA6EEF5003D0F76E0800F5505C
:1073F4000001B86F2FD00001B66B2CD0030E2261B0
:10740400FAD722518E0F296E29C0F6FF100EF76E9F
:107414000800F5CF2AF000012AC0B3F0B46FB351CD
:10742400F66EE96E070EEA6EB451EA6403D0EA6EB2
:10743400EF5003D0F76E0800F5500001B76FB86B3A
:1074440009D004012351010A8FE0030A97E0010ADD
:10745400D5E0D1D71200200E126001D081D06DB2D8
:107464007FD000017751761109E076C0D9FF77C04B
:10747400DAFFDF34E836010BCF6F01D0CF6BD06B6E
:10748400D051CF112EE041D001C54EF002C54FF0CE
:1074940003C5D7F004C5D8F02AD002515E0DF4CF4D
:1074A400F3FFF46AF3500001C76F050103515E0D49
:1074B400F4CFF3FFF46AF3500001C86F05010451DF
:1074C4005E0DF4CFF3FFF46AF3500001C96F0501B8
:1074D40001515E0DF4CFF3FFF46AF350DEEC31F0AA
:1074E40006D005010051010ACFE0030AD6E00001ED
:1074F400C76B050EC96FC86B400ECA6F010EBFEC97
:1075040034F0C7C076F0C8C077F07551741109E043
:1075140074C0D9FF75C0DAFFDF34E836010BD16FD0
:1075240001D0D16BD26BD251D1111AE1050E0001F9
:10753400C86F410EC76F86EC3EF0000911E00501EB
:10754400406B010E0001C76F050EC96F400EC86F76
:10755400CA6F010EBFEC34F0C7C074F0C8C075F038
:10756400120020EE01F00550D9260650DA22DF5031
:107574002B6E2B500001645D000E6559D8A064C0C9
:107584002BF02B50645F000E655B2A6A10D0280E26
:107594002A24D96EDA6A040EDA2260C0E1FF61C0DF
:1075A400E2FFDFCFE7FF0001604B612B2A2A2B505B
:1075B4002A5CEDE3655164112DE020EE01F00750E3
:1075C400D9260850DA22080EDF6E20EE02F00750AA
:1075D400D9260850DA22280EDE6E040EDD6E05C0B0
:1075E400D9FF06C0DAFFDF50296E29BC0DD007C0D1
:1075F400D9FF08C0DAFF480EDF6E07C0D9FF08C004
:10760400DAFF000EDB8E39D007C0D9FF08C0DAFFDD
:10761400080EF2D720EE01F00750D9260850DA22DE
:10762400080EDF6E20EE02F00750D9260850DA2249
:10763400200EDE6E040EDD6E07C0D9FF08C0DAFF2F
:10764400DF6E07C0D9FF08C0DAFF000EDB8E67517A
:1076540066110EE020EE66F001D80AD00500FA6E3D
:10766400DE50FD6EDE50FE6EF850FF6EFA501200D2
:10767400639F116602D0BBEC35F012001204D8B43B
:107684006DBA05D0686A69806988020E126E68B4A2
:1076940069A403D06894D8EC30F06DA202D0A19A0A
:1076A40079D068B069A006D0C7EC38F0A08A040E7F
:1076B400126E689068B869A803D0C9EC30F0689875
:1076C40068AC14D069AC0AD03A6A730E396E3C6A5D
:1076D4003B6A3E6A010E3D6E63EC32F0689C1350C7
:1076E400D8A41306136602D0BBEC35F068BA69AAB5
:1076F40002D0BFEC31F068B269A20BD07F0E3A6EB3
:1077040039683C6A3B6A3E6A010E3D6E63EC32F0B6
:107714006A6A040E126001D0C2D769A6C0D74D6A46
:1077240068A6BDD76CCF26F02630E832E8320F0BBE
:10773400166E689626B404D0165000017A0F03D052
:1077440016500001780FD96EDA6ADF50010B4C6EC7
:10775400010E4C1ADF504C18FE0B4C18DF6E1666E7
:1077640003D061EC35F011D03A6A720E396E260EF0
:107774003B6E000E3C6E0F0E3C6E5F0E3B643C6A2B
:10778400000E3E6A3D6A63EC32F04D2A030E4D64EE
:10779400C7D785D71200226A806B7F6B216A1F6A64
:1077A4009384F188F098F08EF092800EC76F080EE3
:1077B400BBEC30F0780EC86EC30ED56FCD0EE82E3C
:1077C400FED7D52FFCD76B0E0001CD6F800ECE6F88
:1077D400D20E8BEC30F0C30E0001D56FCD0EE82E27
:1077E400FED7D52FFCD7750E0001D26FD60ED36FFE
:1077F400D20E96EC30F00001D651680A01E091D027
:107804000C0ED26FD60ED36FC00E96EC30F0000182
:10781400D651C40A01E085D00F0ED26FD60ED36FB5
:107824001C0E96EC30F00001D651470A7AE16B0E3B
:10783400CD6F020ECE6FD20E8BEC30F0190E00011C
:10784400CD6F090ECE6FD20E8BEC30F01A0E000104
:10785400CD6F020ECE6FD20E8BEC30F01B0E0001FA
:10786400CD6F080ECE6FD20E8BEC30F01C0E0001E3
:10787400CD6F080ECE6FD20E8BEC30F0230E0001CC
:10788400CD6FCE6BD20E8BEC30F06A0E0001CD6F53
:10789400200ECE6FD20E8BEC30F0370E0001CD6F80
:1078A400300ECE6FD20E8BEC30F0240E0001CD6F73
:1078B400CD0ECE6FD20E8BEC30F0670E0001CD6F83
:1078C400CE6BD20E8BEC30F0260E0001CD6F020E83
:1078D400CE6FC00E8BEC30F01B0E0001CD6F820E0C
:1078E400CE6F1C0E8BEC30F01D0E0001CD6F400EE0
:1078F400CE6F1C0E8BEC30F0370E0001CD6F100EE6
:10790400CE6FD20E8BEC30F0380E0001CD6F010E2D
:10791400CE6FD20E8BEC30F09D869F86F088F0926D
:1079240018821200010E326E000E336E346E356E04
:107934009EA0DDD09E90172A17C029F01F0E29168D
:10794400292805D0D8903236333634363536E82EE9
:10795400F9D71850040DF3505A0F296E29C0F6FFB9
:10796400100EF76E0900F5CF2AF00900F5CF2BF0C1
:107974000900F5CF2CF00900F5CF2DF032502A1470
:107984002E6E33502B142F6E34502C14306E355011
:107994002D14316E31502E102F10301002E08D80D6
:1079A40001D08D904E50040DF350260F296E29C03E
:1079B400F6FF100EF76E0900F5CF2AF00900F5CF97
:1079C4002BF00900F5CF2CF00900F5CF2DF0325043
:1079D4002A142E6E33502B142F6E34502C14306E08
:1079E40035502D14316E31502E102F10301002E00E
:1079F4008C8601D08C964F50040DF350260F296EBF
:107A040029C0F6FF100EF76E0900F5CF2AF0090021
:107A1400F5CF2BF00900F5CF2CF00900F5CF2DF0B0
:107A240032502A142E6E33502B142F6E34502C14D3
:107A3400306E35502D14316E31502E102F10301001
:107A440002E08C8A01D08C9A0001D751040DF350C6
:107A5400260F296E29C0F6FF100EF76E0900F5CF28
:107A64002AF00900F5CF2BF00900F5CF2CF009001E
:107A7400F5CF2DF032502A142E6E33502B142F6E66
:107A840034502C14306E35502D14316E31502E106C
:107A94002F10301002E08C8E01D08C9ED851040D32
:107AA400F350260F296E29C0F6FF100EF76E090059
:107AB400F5CF2AF00900F5CF2BF00900F5CF2CF013
:107AC4000900F5CF2DF032502A142E6E33502B14AA
:107AD4002F6E34502C14306E35502D14316E3150BD
:107AE4002E102F10301002E08C8201D08C921200E4
:107AF400040122050DE120511F0B0AE10001B68F9C
:107B040004012151030A03E1010E0E6E01D00E6A35
:107B14002267F9D020511F0B020A01E0F4D024514E
:107B24000F0B01E1F0D024510F0B416E020E415CAA
:107B340001E3E9D01250200A01E0E5D00001B68F3C
:107B4400040124BF11D024510F0B020DF350700F08
:107B5400D96EDA6ADECF46F0DDCF47F024510F0B41
:107B6400416E41507A0F11D024510F0B020DF35086
:107B74006C0FD96EDA6ADECF46F0DDCF47F0040130
:107B840024510F0B416E4150780FD96EDA6ADF50E1
:107B9400456E45B002D0469401D04684040124BF0A
:107BA40006D024510F0B020DF350700F05D0245151
:107BB4000F0B020DF3506C0FD96EDA6A46C0DEFF6C
:107BC40047C0DDFF04012151030A27E146C0D9FF64
:107BD40047C0DAFFDF50416E41AE13D024BF07D057
:107BE40024510F0B416E415000017A0F06D02451ED
:107BF4000F0B416E41500001780FD96EDA6A020E04
:107C0400DF1246C0D9FF47C0DAFF000EDB8446C04E
:107C1400D9FF47C0DAFFDB8E76D0040E461A46C081
:107C2400D9FF47C0DAFFDF50416E41AE19D046C0DC
:107C3400D9FF47C0DAFF7F0EDF1646C0D9FF47C021
:107C4400DAFF000EDB8C3A6A050E396E46C03BF053
:107C540047C03CF03E6A020E3D6E63EC32F006D043
:107C640046C0D9FF47C0DAFF000EDB8C040E461A6B
:107C740045B208D046C0D9FF47C0DAFFDF50416E95
:107C840041AE27D0040124BF07D024510F0B416E0D
:107C9400415000017A0F06D024510F0B416E415020
:107CA4000001780FD96EDA6AFD0EDF1646C0D9FFDF
:107CB40047C0DAFF3B0EDF163A6A050E396E46C03E
:107CC4003BF047C03CF03E6A020E3D6E63EC32F07E
:107CD40006D046C0D9FF47C0DAFF3B0EDF16700E50
:107CE400416E0F0E426E040124510F0B4126000E0B
:107CF400422241C043F042C044F043C0D9FF44C0D3
:107D0400DAFFFE0EDF161200225002E0806702D076
:107D1400000E73D17F51190DF350810FCE6FCE51E8
:107D2400D96EDA6ADF50CA6FC96BCE51D96EDA6A7E
:107D3400D92ADA6ADF50C913C7C0D9FFC8C0DAFF2D
:107D4400C9C0DEFFCAC0DDFFCE51D96EDA6A020EA9
:107D5400D926DA6ADF50CA6FC96BCE51D96EDA6A96
:107D6400030ED926DA6ADF50C91320EE02F0C75198
:107D7400D926C851DA22C9C0DEFFCAC0DDFFCE5100
:107D8400D96EDA6A040ED926DA6ADF50CA6FC96B73
:107D9400CE51D96EDA6A050ED926DA6ADF50C913D4
:107DA40020EE04F0C751D926C851DA22C9C0DEFF3B
:107DB400CAC0DDFFCE51D96EDA6A080ED926DA6A56
:107DC400DF50CA6FC96BCE51D96EDA6A090ED92653
:107DD400DA6ADF50C91320EE06F0C751D926C8511C
:107DE400DA22C9C0DEFFCAC0DDFFCE51D96EDA6A1D
:107DF4000A0ED926DA6ADF50CA6FC96BCE51D96E22
:107E0400DA6A0B0ED926DA6ADF50C91320EE08F0BD
:107E1400C751D926C851DA22C9C0DEFFCAC0DDFF66
:107E2400CE51D96EDA6A0C0ED926DA6ADF50CA6FDF
:107E3400C96BCE51D96EDA6A0D0ED926DA6ADF50D3
:107E4400C91320EE0AF0C751D926C851DA22C9C095
:107E5400DEFFCAC0DDFFCE51D96EDA6A140ED92610
:107E6400DA6ADF50CA6FC96BCE51D96EDA6A130E63
:107E7400D926DA6ADF50C91320EE0CF0C751D9268F
:107E8400C851DA22C9C0DEFFCAC0DDFFCE51D96EA7
:107E9400DA6A160ED926DA6ADF50CA6FC96BCE5178
:107EA400D96EDA6A150ED926DA6ADF50C91320EEC4
:107EB4000EF0C751D926C851DA22C9C0DEFFCAC0A4
:107EC400DDFFCE51D96EDA6A180ED926DA6ADF5090
:107ED400CA6FC96BCE51D96EDA6A170ED926DA6A1F
:107EE400DF50C91320EE10F0C751D926C851DA2249
:107EF400C9C0DEFFCAC0DDFFCE51D96EDA6A110EE9
:107F0400D926DA6ADF50CA6FC96BCE51D96EDA6AE4
:107F1400120ED926DA6ADF50C91320EE12F0C751C7
:107F2400D926C851DA22C9C0DEFFCAC0DDFFCE514E
:107F3400D96EDA6A0E0ED926DA6ADF50C96FC9C063
:107F4400CAF0CB6BCC6BCD6B20EE14F0C751D926A5
:107F5400C851DA22CAC0DEFFCBC0DEFFCCC0DEFFD0
:107F6400CDC0DDFFD906D90620EE14F0C751D926BD
:107F7400C851DA22080ED890DE36DE36DE36DD361B
:107F8400D906D906E82EF7D720EE14F0C751D92622
:107F9400C851DA22CE51E16EE26A0F0EE126E26A9E
:107FA400E750DE12000EDE12DE12DD1220EE14F0B7
:107FB400C751D926C851DA22080ED890DE36DE36EB
:107FC400DE36DD36D906D906E82EF7D720EE14F0D2
:107FD400C751D926C851DA22CE51E16EE26A100E99
:107FE400E126E26AE750DE12000EDE12DE12DD1236
:0C7FF40080077F29010B7F6F010E120037
:020000040020DA
:08000000FFFFFFFFFFFFFFFF00
:020000040030CA
:0E000000210E3F1EFF8181FF0FC00FE00F4059
:00000001FF
